:100000000C94E0010C94FD010C94FD010C94FD0195
:100010000C94FD010C94FD010C94FD010C94FD0168
:100020000C94FD010C94FD010C94FD010C94FD0158
:100030000C94FD010C94FD010C94FD010C94FD0148
:100040000C94FD010C94FD010C94FD010C94FD0138
:100050000C94FD010C94FD010C94FD010C94FD0128
:100060000C94FD010C94FD014572726F7220696E53
:100070002067657474696E6720636C75737465724C
:1000800000456E64206F6620436C75737465722042
:10009000436861696E00204E6F206672656520635B
:1000A0006C75737465722100204E6F2066726565F1
:1000B00020636C75737465722100496E76616C699A
:1000C000642066696C654E616D652E2E0045727206
:1000D0006F7220696E2067657474696E6720636C47
:1000E0007573746572004572726F7220696E206755
:1000F000657474696E6720636C7573746572005201
:100100004F4F5400444952002020200046494C459E
:10011000002020200046696C652064656C6574656C
:1001200064210044656C6574696E672E2E00466913
:100130006C6520646F6573206E6F742065786973D9
:100140007421000A0D0A0D20496E76616C696420E5
:100150006F7074696F6E210A0D0046696C652064CA
:100160006F6573206E6F742065786973742E2E002E
:100170002066696C65206E616D6520746F6F206C00
:100180006F6E672E2E000A0D456E746572206669CB
:100190006C65206E616D653A2000446F6E65005796
:1001A000726974696E67202E2E2E000A4F70657278
:1001B0006174696F6E2053746F707065642E2E00C9
:1001C0000A0D0A0D3E20456E746572207468652024
:1001D0006F7074696F6E3A000A0D3E2035203A2028
:1001E000446973706C6179204D656D6F7279000A96
:1001F0000D3E2034203A2044656C657465204669C4
:100200006C65000A0D3E2033203A2052656164205F
:1002100046696C65000A0D3E2032203A205772690B
:10022000746520546573742046696C65000A0D3E40
:100230002031203A204765742066696C65206C691E
:100240007374000A0D0A0D3E2030203A204578696B
:100250007420746865204D656E75000A0D46415422
:100260003332206E6F7420666F756E642100556E98
:100270006B6E6F776E205344204361726420446537
:1002800074656374656421005374616E64617264A3
:10029000204361706163697479204361726420282E
:1002A00056657220322E7829204465746563746522
:1002B00064210048696768204361706163697479EB
:1002C0002043617264204465746563746564210031
:1002D0005374616E64617264204361706163697418
:1002E000792043617264202856657220312E782966
:1002F0002044657465637465642100436172642001
:10030000496E697469616C697A6174696F6E20669F
:1003100061696C65642E2E00534420636172642011
:100320006E6F742064657465637465642E2E000AB4
:100330000D2A2A2A2A2A2A2A2A2A2A2A2A2A2A2A3A
:100340002A2A2A2A2A2A2A2A2A2A2A2A2A2A2A2A0D
:100350002A2A2A2A2A2A2A2A2A2A2A2A2A2A2A2AFD
:100360002A2A2A2A2A0A0D000A0D202020202020CD
:100370002020206D6963726F53442041544D4547DE
:10038000413332385020000A0D0A0D2A2A2A2A2A1F
:100390002A2A2A2A2A2A2A2A2A2A2A2A2A2A2A2ABD
:1003A0002A2A2A2A2A2A2A2A2A2A2A2A2A2A2A2AAD
:1003B0002A2A2A2A2A2A2A2A2A2A2A2A2A2A2A00C7
:1003C00011241FBECFEFD8E0DEBFCDBF11E0A0E00B
:1003D000B1E0E8E9FFE102C005900D92A832B10753
:1003E000D9F723E0A8E2B1E001C01D92A93CB20711
:1003F000E1F70E94240C0C94CA0F0C940000CF92D9
:10040000DF92EF92FF92A0914D03B0914E03C09006
:100410003501D0903601E0903701F09038019B0112
:10042000AC0122503109410951090E94BF0F6C0DE6
:100430007D1D8E1D9F1DFF90EF90DF90CF90089542
:100440004F925F926F927F928F929F92AF92BF92E4
:10045000CF92DF92EF92FF920F931F93CF93DF9390
:10046000D42F2801390140915803509159034B0171
:100470005C01880C991CAA1CBB1C880C991CAA1C2A
:10048000BB1C20913D0130913E01C0904F03D090A4
:100490005003E0905103F0905203C40ED51EE11CAE
:1004A000F11C40E050E0C501B4010E948E0FC20E65
:1004B000D31EE41EF51E20913D0130913E0140E027
:1004C00050E0C501B4010E948E0F4B015C01CAE0EF
:1004D000C701B6010E94B80E882311F0C150C1F7C0
:1004E000F401E35BFE4FD11108C080819181A281AC
:1004F000B381BC01CD019F700BC0408251826282EA
:100500007382C701B6010E94E60E60E070E0CB0185
:10051000DF91CF911F910F91FF90EF90DF90CF90DF
:10052000BF90AF909F908F907F906F905F904F9013
:100530000895CF92DF92EF92FF92CF93DF93D82F5F
:10054000C62F69017A0180914F0390915003A091C9
:100550005103B0915203BC01CD016F5F7F4F8F4FAC
:100560009F4F0E94B80E80914D0190914E01A09135
:100570004F01B091500182359245A146B14409F036
:1005800058C08091310390913203A0913303B09110
:10059000340382379247A144B14609F04EC080919E
:1005A000490390914A03A0914B03B0914C030097EB
:1005B000A545BA4A09F045C0C11114C0D13049F46B
:1005C0006091350370913603809137039091380321
:1005D0003BC06091390370913A0380913B03909145
:1005E0003C0332C0D13049F4C0923503D092360377
:1005F000E0923703F092380308C0C0923903D092DA
:100600003A03E0923B03F0923C0380914F039091B8
:100610005003A0915103B0915203BC01CD016F5F13
:100620007F4F8F4F9F4F0E94E60E6FEF7FEFCB0102
:100630000BC06FEF7FEFCB0107C06FEF7FEFCB01F8
:1006400003C06FEF7FEFCB01DF91CF91FF90EF9071
:10065000DF90CF900895EF92FF920F931F93CF9367
:10066000DF9310924F031092500310925103109297
:10067000520360E070E0CB010E94B80E80914D0102
:100680008D7F893E01F180914B0390914C0385351C
:100690009A4A09F097C060911303709114038091F6
:1006A00015039091160360934F037093500380934A
:1006B0005103909352030E94B80E80914D018D7F9B
:1006C000893E09F081C0EDE4F1E083859485909343
:1006D0003E0180933D01858590E090934E03809389
:1006E0004D03C685D785D0935903C093580384A57D
:1006F00095A5A6A5B7A58093430190934401A09327
:100700004501B09346010091580310915903A08907
:1007100024A135A146A157A1B0E00E94BF0FAB01B3
:10072000BC01848D958DA68DB78D800F911FA11D65
:10073000B11D840F951FA61FB71F8093350190939D
:100740003601A0933701B093380120914D033091C9
:100750004E0380A191A1A2A1B3A18C1B9D0BA10965
:10076000B1097C018D01E41AF50A060B170BC801CB
:10077000B70140E050E00E948E0F20933F0130937C
:100780004001409341015093420120E030E0A90133
:1007900060E081E00E94990200913F0110914001C8
:1007A00020914101309142010617170728073907A8
:1007B00020F41092C40380E008C081E08093C40359
:1007C00080E003C081E001C081E0DF91CF911F9103
:1007D0000F91FF90EF900895CF93DF93CDB7DEB7E1
:1007E0002B970FB6F894DEBF0FBECDBFBC01DC0166
:1007F0008C918E3261F1FB01319691E081918E32C4
:1008000021F09F5F9C30D1F706C0993020F4911100
:1008100008C0292F1EC08AEB90E00E945C0F81E087
:1008200062C0FB019E012F5F3F4F4FEF490F50E029
:100830004F5F5F4F460F571F8191D9018D939D01E7
:100840004E175F07C9F7983078F4292F02C090E05F
:1008500020E080E2E1E0F0E0EC0FFD1FE20FF11D8F
:1008600080832F5F2830B0F321E0290F98E0FB014F
:10087000E20FF11D8081811103C09B3050F015C043
:100880002F5FE1E0F0E0EC0FFD1FE90FF11D808329
:100890000CC020E2E1E0F0E0EC0FFD1FE90FF11DDC
:1008A00020839F5F9B30B1F703C09F5F9B30F8F2BE
:1008B0009E012F5F3F4FAE01445F5F4FF901808182
:1008C0009FE9980F9A3110F48052808331964E1729
:1008D0005F07A9F7FB01D9018D919D018193A417B1
:1008E000B507C9F780E02B960FB6F894DEBF0FBEB0
:1008F000CDBFDF91CF9108954F925F926F927F921B
:100900008F929F92AF92BF92CF92DF92EF92FF921F
:10091000CF93DF936B017C0120E8C22280913F01DD
:1009200090914001A0914101B0914201C816D906B1
:10093000EA06FB0608F070C046015701880C991CB6
:10094000AA1CBB1C880C991CAA1CBB1CCDE4D1E0C2
:10095000409158035091590380913D0190913E017F
:1009600040904F0350905003609051037090520399
:10097000440E551E611C711C9C0140E050E0C501F5
:10098000B4010E948E0FC301B201620F731F841F56
:10099000951F0E94B80E88819981AA81BB81BF7082
:1009A000892B8A2B8B2B99F021E0E22FF0E0EE0FC0
:1009B000FF1FEE0FFF1FE35BFE4F80819181A2813D
:1009C000B381BF70892B8A2B8B2B49F401C020E0A7
:1009D000C701B601620F711D811D911D20C02F5FDF
:1009E00022F780E8C80ED11CE11CF11C80913F0168
:1009F00090914001A0914101B091420122E0920EFC
:100A0000A11CB11CC816D906EA06FB0608F4A0CF43
:100A100060E070E0CB0103C060E070E0CB01DF91EB
:100A2000CF91FF90EF90DF90CF90BF90AF909F90CD
:100A30008F907F906F905F904F9008958F929F92CC
:100A4000AF92BF92DF92EF92FF920F931F93CF93DB
:100A5000DF93CDB7DEB764970FB6F894DEBF0FBE55
:100A6000CDBFD82ECB01BA0124E1E0E0F1E0DE01F8
:100A7000119601900D922A95E1F71CE00CE20F2EE1
:100A8000FAE08F2E912CA12CB12CF02D153011F005
:100A9000193029F4FE01E10FF11D008311507E0190
:100AA000E10EF11CA50194010E948E0F6063F70115
:100AB0006083622F732F842F952F61157105810537
:100AC000910511F0115011F7F1E0DF1202C08BE433
:100AD0008E87CE0101960E946F0F64960FB6F89430
:100AE000DEBF0FBECDBFDF91CF911F910F91FF9061
:100AF000EF90DF90BF90AF909F908F900895CF922E
:100B0000DF92EF92FF92CF936A017B0191E0D922AD
:100B1000EE24FF24CD28CE28CF2851F4032E39E02F
:100B200076956795579547953A95D1F7302D0DC035
:100B3000032E39E076956795579547953A95D1F705
:100B4000302D4F5F5F4F6F4F7F4F6A017B0197E002
:100B5000C922DD24EE24FF24CD28CE28CF2859F445
:100B60006A017B01689412F8F694E794D794C794CD
:100B70001694D1F70FC0689412F87695679557953B
:100B800047951694D1F76A017B019FEFC91AD90ADC
:100B9000E90AF90A9091C4039923D9F0C82F20E0FB
:100BA00030E0A90160E081E00E949902C11107C014
:100BB000A7019601260F371F481F591F06C09B012A
:100BC000AC012C193D094E095F0961E081E00E94EA
:100BD0009902CF91FF90EF90DF90CF9008952F92E0
:100BE0003F924F925F926F927F928F929F92AF92BD
:100BF000BF92CF92DF92EF92FF920F931F93CF930A
:100C0000DF93CDB7DEB72C970FB6F894DEBF0FBEDB
:100C1000CDBF8E831B018091430190914401A0912F
:100C20004501B09146018F839887A987BA879E8135
:100C3000915099830F2EFFEFCF2EF0E0DF2EF02D95
:100C40006F81788589859A850E94FF014B015C013F
:100C500080914D0390914E03892B09F478C1412C6A
:100C6000512C3201D501C401840D951DA61DB71D5F
:100C70008A839B83AC83BD83BC01CD010E94B80EE7
:100C800080913D0190913E01892B09F44FC1ADE463
:100C9000B1E08C91882351F08D01E12CF12C11C031
:100CA000005E1F4FF801808181110BC0FE81F23080
:100CB00009F06EC18EE291E00E945C0F80E090E04E
:100CC0006CC1853E09F427C1D8011B968C918F30E9
:100CD00009F421C1B981B23008F0CFC0F801908188
:100CE000D1018C91981317C1D8011196F101319659
:100CF00081E02D919191291304C08F5F8B30C9F74A
:100D000003C08B3009F007C1BE81B13009F041C08A
:100D10008A819B81AC81BD818093C5039093C6037A
:100D2000A093C703B093C803C701A0E0B0E08093CD
:100D30002F0190933001A0933101B0933201D8017B
:100D400054968D919C915597A0E0B0E0DC019927D5
:100D50008827F801428D538D60E070E0842B952B3D
:100D6000A62BB72B80935A0390935B03A0935C034D
:100D7000B0935D03848D958DA68DB78D80933901D9
:100D800090933A01A0933B01B0933C01802F912FA7
:100D900004C18DE00E94540F8AE00E94540F83E248
:100DA00091E00E945C0F8DE00E94540F8AE00E9447
:100DB000540F8DE00E94540F8AE00E94540FD80116
:100DC0005496CD90DC905597E12CF12CD6019927C3
:100DD0008827F801C28CD38CE12CF12CC82AD92A9F
:100DE000EA2AFB2A85EE80836A817B818C819D8142
:100DF0000E94E60ED8015C964D915D916D917C91BB
:100E00005F9780E00E947F0520E030E0A90160E06C
:100E100082E00E949902C616D706E806F90630F469
:100E2000A701960161E082E00E94990200E010E0D3
:100E3000980140E0C701B6010E942002A62EB72EFD
:100E40008A83998300E010E0980141E0C701B60170
:100E50000E942002CA2CDB2CEA80F980B7EFCB1667
:100E6000BFEFDB06EB06BFE0FB0600F385E191E098
:100E70000E945C0F80E090E090C08DE00E94540FD3
:100E80008AE00E94540FE1E01B86EC8706C02B85A8
:100E90002F5F2B873C853F5F3C878B85883059F4DB
:100EA00080E20E94540FF8019B85E90FF11D8081BB
:100EB0000E94540FECCFF801AB85EA0FF11D808141
:100EC0000E94540FBC85BB3010F381E191E00E9479
:100ED0005C0FF80183858031A9F08830C1F08CE087
:100EE00091E00E945C0F88E091E00E945C0FD801C5
:100EF0005C964D915D916D917C915F9780E00E9431
:100F00001E0509C0E4E0F1E08E2F9F2F02C08C2D5A
:100F10009D2D0E945C0FF0E2EF0EF11C80913D01CF
:100F200090913E01E816F90608F4BACE2FEF421A66
:100F3000520A620A720A80914D0390914E03A0E01A
:100F4000B0E0481659066A067B0608F48BCE00E02E
:100F500010E0980140E06F81788589859A850E942C
:100F600020026F83788789879A87673F3FEF7307EF
:100F700083073FE0930778F4672B682B692B09F010
:100F80005FCE86EE90E00E945C0F80E090E005C0AE
:100F900080E090E002C080E090E02C960FB6F894DC
:100FA000DEBF0FBECDBFDF91CF911F910F91FF909C
:100FB000EF90DF90CF90BF90AF909F908F907F90F9
:100FC0006F905F904F903F902F9008954F925F9257
:100FD0006F927F928F929F92AF92BF92CF92DF9249
:100FE000EF92FF920F931F93CF93DF9300D000D027
:100FF00000D0CDB7DEB7182F7A836983CB010E946A
:10100000EC0381119AC069817A8181E00E94EF0529
:10101000009731F481E0112309F494C080E092C07C
:10102000113009F48CC0DC0154964D915C915597B8
:1010300060E070E0BA01552744275A96CD90DC90C5
:101040005B97E12CF12C8A019B010C291D292E298B
:101050003F2909831A832B833C835C968D909D9056
:10106000AD90BC905F978DE00E94540F8AE00E9483
:10107000540F8DE00E94540F8AE00E94540FC12C3F
:10108000D12C760169817A818B819C810E94FF013C
:101090002B013C0180914D0390914E03892BA1F1CE
:1010A00010E002C06C017D01C301B201610F711D2E
:1010B000811D911D0E94B80E1E821D82ED81FE8150
:1010C000E35BFE4F80810E94540FD701C601019659
:1010D000A11DB11DC814D904EA04FB0490F52D81AB
:1010E0003E812F5F3F4F3E832D836C017D01211593
:1010F000324021F71F5F20914D0330914E03412F65
:1011000050E04217530770F200E010E0980140E011
:1011100069817A818B819C810E94200269837A8314
:101120008B839C83672B682B692B09F0ABCF8DECED
:1011300090E00E945C0F80E005C082E003C081E087
:1011400001C080E026960FB6F894DEBF0FBECDBF7B
:10115000DF91CF911F910F91FF90EF90DF90CF9093
:10116000BF90AF909F908F907F906F905F904F90C7
:101170000895CF93DF93EC010E94EC03811104C02A
:10118000BE0182E00E94EF05DF91CF9108952F927A
:101190003F924F925F926F927F928F929F92AF9207
:1011A000BF92CF92DF92EF92FF920F931F93CF9354
:1011B000DF93CDB7DEB72E970FB6F894DEBF0FBE24
:1011C000CDBF9E838D83BC0181E00E94E607813004
:1011D00009F052C0C0905A03D0905B03E0905C03CA
:1011E000F0905D03812C912C540100E010E09801F7
:1011F00040E0C701B6010E9420026F3F2FEF720747
:101200008207920741F03FEF831A930AA30AB30AB9
:101210006B017C01EACF20914D0330914E03A091E8
:101220003D01B0913E01E0913D01F0913E010E94EF
:10123000B00F9B01AC01C501B4010E947E0F00916B
:10124000390110913A0120913B0130913C01480154
:101250005901861A970AA80AB90AC501B4019F0163
:1012600040E050E00E948E0F022F1B861A86212C30
:10127000312C21E0298747C0823009F4A2C220E046
:1012800030E0A90160E082E00E94990200913F01F4
:10129000109140012091410130914201061717073A
:1012A0002807390740F4609143017091440180910F
:1012B0004501909146010E947C046B017C016115FF
:1012C00071058105910561F48DE00E94540F8AE05B
:1012D0000E94540F88EA90E00E945C0F81E076C281
:1012E0000FEF1FEF980141E00E9420021701DB86FB
:1012F000CA861092390110923A0110923B01109265
:101300003C0100E01986898510E0402E512C612CAB
:10131000712C3A822982302E882371F1C701B601DF
:101320000E94FF01DC01CB01840D951DA61DB71D98
:101330008093490190934A01A0934B01B0934C01D3
:101340006091490170914A0180914B0190914C014B
:101350000E94B80E20913D0130913E0140E050E0E6
:101360006091390170913A0180913B0190913C016B
:101370000E948E0F032D0FC0C701B6010E94FF010E
:101380006093490170934A0180934B0190934C0103
:1013900060E070E000E088248394810E8C86E12F69
:1013A000F0E0E25AFC4F1081CB010196FB01E35BB8
:1013B000FE4F10834091390150913A0160913B01F9
:1013C00070913C014F5F5F4F6F4F7F4F40933901EA
:1013D00050933A0160933B0170933C01811522E0E8
:1013E000920750F16091490170914A0180914B013F
:1013F00090914C010E94E60E0F5F80914D039091F9
:101400004E03202F30E02817390701F18091490160
:1014100090914A01A0914B01B0914C010196A11D00
:10142000B11D8093490190934A01A0934B01B09361
:101430004C0160E070E001C0BC011A3071F01C8505
:10144000143608F4A8CF29803A8009C01A3061F414
:1014500029803A8060E070E00EC029803A806115F2
:1014600032E0730740F011C08C85843618F1298072
:101470003A8060E070E0FB01E35BFE4F10826F5F3B
:101480007F4F611592E07907B1F760914901709142
:101490004A0180914B0190914C010E94E60EA701F8
:1014A000960161E082E00E9499028984882009F413
:1014B00071C02BC0C701B6010E947C044B015C01C6
:1014C000611571058105910561F48DE00E94540F4D
:1014D0008AE00E94540F86E990E00E945C0F81E050
:1014E00075C18B019C0141E0C701B6010E94200239
:1014F0000FEF1FEF980141E0C501B4010E942002E7
:1015000080E0750164011C8507CF6091C50370916F
:10151000C6038091C7039091C8030E94B80EE09162
:101520002F01F0913001E35BFE4F138A128A809104
:10153000470190914801978B868B80913301909160
:101540003401918F808F8091390190913A01A0915F
:101550003B01B0913C01448D558D668D778D6C01BA
:101560007D01C41AD50AE60AF70A848F958FA68FE3
:10157000B78F6091C5037091C6038091C7039091A6
:10158000C8030E94E60EB701A60181E00E947F0514
:1015900080E01CC18090430190904401A0904501DF
:1015A000B090460189829A82AB82BC82612C2D81E7
:1015B0003E81255F3F4F6894552455F8EA84FB84AB
:1015C000462C6D807E803E872D8769817A818B8154
:1015D0009C810E94FF016D837E838F839887809119
:1015E0004D0390914E03892B09F498C0D12C8D8026
:1015F0009E80AF80B8848D0C911CA11CB11CC501CC
:10160000B4010E94B80E80913D0190913E01892B5A
:1016100009F479C04110D7C08DE491E000E010E0FA
:1016200001C08096DC012C91222319F0253E09F09F
:1016300060C0F301DC0121912D932D853E85E217D9
:10164000F307C9F7DC011B965C921B971C961C9252
:101650001C971D961C921D9740914701509148017F
:101660001F965C934E931E97209133013091340165
:1016700051963C932E93509753961C921E925297DC
:1016800057965C934E93569759963C932E93589742
:1016900055963C922E9254975B96FC92EE925A97F6
:1016A0004091390150913A0160913B0170913C01A8
:1016B000FC01448F558F668F778FC501B4010E945E
:1016C000E60E4091390150913A0160913B017091D1
:1016D0003C0181E00E947F0580913D0190913E0197
:1016E000005E1F4F0817190708F46FC04424439485
:1016F0000AC0005E1F4F20913D0130913E0102174C
:10170000130708F48ECFD39480914D0390914E032C
:101710002D2D30E02817390708F469CF00E010E0DC
:10172000980140E069817A818B819C810E9420022E
:10173000673F2FEF720782072FE0920778F16F3F24
:101740007F4F8F4F9F4F21F569817A818B819C81DB
:101750000E947C04A62EB72EC82ED92E062F172F36
:10176000282F392F41E069817A818B819C810E94E9
:1017700020020FEF1FEF980141E06A2D7B2D8C2D89
:101780009D2D0E942002A982BA82CB82DC820AC0EF
:1017900081E890E00E945C0F81E018C069837A8341
:1017A0008B839C8389809A80AB80BC8089288A281F
:1017B0008B2809F00ACF88E690E00E945C0F81E058
:1017C00005C081E003C080E001C080E02E960FB626
:1017D000F894DEBF0FBECDBFDF91CF911F910F9167
:1017E000FF90EF90DF90CF90BF90AF909F908F9041
:1017F0007F906F905F904F903F902F90089515B815
:101800008FEE84B980E888B980E687B90895F894A6
:101810000E94FF0B0E94300F0E94410F0895469ACC
:101820002FEF87E893E1215080409040E1F700C01E
:10183000000046982FEF87E893E1215080409040C8
:10184000E1F700C00000EBCFCF93DF93CDB7DEB759
:1018500029970FB6F894DEBF0FBECDBF89E0EEE149
:10186000F1E0DE01119601900D928A95E1F72FEFDC
:1018700081EE94E0215080409040E1F700C00000EC
:101880000E94070C459A469887E893E00E945C0FF7
:1018900088E693E00E945C0F8FE293E00E945C0F69
:1018A0001092C2031AE00E94130E882309F444C167
:1018B0001150C9F74DC188E193E00E945C0F06C04A
:1018C000823021F48BEF92E00E945C0F0E940F0C9B
:1018D00080ED92E00E945C0F0EC083EB92E00E94CC
:1018E0005C0F09C088E892E00E945C0F04C08EE69D
:1018F00092E00E945C0F0E942B03882331F08BE55D
:1019000092E00E945C0F0E940F0C80E58CBD8DB5AB
:1019100081608DBDEFE9FFE03197F1F700C0000075
:101920000F2EF1E4CF2EF02D0EE513E00F2EFCE28A
:10193000DF2EF02D0F2EFCE33F2EF02D0F2EFDE3BA
:101940004F2EF02D0F2EFEE35F2EF02D0F2EFFE316
:101950006F2EF02D6894772476F80F2EF2E48F2EF8
:10196000F02D0F2EF3E49F2EF02D5E01FEE0AF0E62
:10197000B11C83E492E00E945C0F8DE292E00E9431
:101980005C0F85E192E00E945C0F83E092E00E9490
:101990005C0F8FEE91E00E945C0F88ED91E00E9459
:1019A0005C0F80EC91E00E945C0F0E944C0F282E8F
:1019B0000E94540F22E3221621F1221538F080E311
:1019C000281669F091E3291681F0B0C0E4E3E2152E
:1019D00008F042C0F5E32F1609F49BC0A7C08BEABC
:1019E00091E00E945C0F4698A6C08DE00E94540FC3
:1019F0008AE00E94540F60E070E080E00E94EF05F2
:101A0000B8CF8DE00E94540F8AE00E94540F80E00E
:101A100090E0FC01E25AFC4FC08201968A309105A9
:101A2000C1F7F801D2863386448655866686778666
:101A3000C08A818A928AD38A8FE991E00E945C0FE2
:101A400084E191E00E94C70881110E940F0C8AE98D
:101A500091E00E945C0F8DCF86E891E00E945C0FC0
:101A6000FE0131961192EA15FB05E1F7F12C01C058
:101A7000F82E0E944C0FE82EFDE08F1739F128E078
:101A800082130DC0FF20A9F388E00E94540F80E26A
:101A90000E94540F88E00E94540FFA94EACF80EE1F
:101AA0008E0D8F3530F78E2D0E94540F81E08F0DF3
:101AB000E1E0F0E0EC0FFD1FEF0DF11DE0828D3055
:101AC000B9F680E791E00E945C0F53CF8CE08F1550
:101AD00008F44FCF8DE00E94540F8AE00E94540F0B
:101AE00093E329120EC0BE016F5F7F4F80E00E941A
:101AF000E607813009F03DCF8AE591E00E945C0F56
:101B000038CFE4E32E1235CFCE0101960E94B908FA
:101B100030CF20E030E0A90160E081E00E9499022E
:101B2000AB01BC0181E00E941E0523CF83E491E05C
:101B30000E945C0F1ECFFFCF8091C203823009F458
:101B4000CCCE833009F4CECE813009F0D0CEC0CED9
:101B5000813009F0B5CEAFCECF92DF92EF92FF92F7
:101B60001F93CF93DF93182F6A017B01809153035A
:101B7000811115C08FEE810F823040F088EE810F09
:101B8000823020F080EE810F823048F40B2EB9E0D5
:101B9000CC0CDD1CEE1CFF1CBA95D1F7B02D2C9897
:101BA000812F80640E94340F8F2D0E94340F8E2D60
:101BB0000E94340F8D2D0E94340F8C2D0E94340F03
:101BC000183021F487E80E94340F07C085E90E948D
:101BD000340F03C0C15011F41AC0C0E00E943A0F84
:101BE000D82F8F3FB9F3811112C01A3381F40E94AC
:101BF0003A0F86FF04C081E08093530302C0109225
:101C000053030E943A0F0E943A0F0E943A0F0E941B
:101C10003A0F2C9A8D2FDF91CF911F91FF90EF906B
:101C2000DF90CF9008950F931F93CF93DF931AE027
:101C30008FEF0E94340F1150D9F72C9840E050E0FC
:101C4000BA0180E00E94AC0DC0E2D0E009C040E0E3
:101C500050E0BA0180E00E94AC0D219709F477C0F2
:101C60008130A9F72C9A8FEF0E94340F8FEF0E94DA
:101C7000340F4AEA51E060E070E088E00E94AC0D69
:101C8000CEEFD0E014C04AEA51E060E070E088E0B6
:101C90000E94AC0D219759F48DE00E94540F8AE008
:101CA0000E94540F81E08093C20301E003C08130A1
:101CB00051F702E040E050E0BA0187E30E94AC0D2A
:101CC00040E050E060E070E489E20E94AC0DCEEFAD
:101CD000D0E017C040E050E0BA0187E30E94AC0DAD
:101CE00040E050E060E070E489E20E94AC0D219792
:101CF00041F48DE00E94540F8AE00E94540F12E0DC
:101D000031C08111E7CF10925303023059F521C041
:101D100040E050E0BA018AE30E94AC0D219749F4FB
:101D20008DE00E94540F8AE00E94540F1092C2036B
:101D300002C08111EDCF80915303813021F482E004
:101D40008093C2030FC083E08093C2030BC011E0F5
:101D500009C040E050E0BA018AE30E94AC0DCEEF2A
:101D6000D0E0E7CF812FDF91CF911F910F910895A0
:101D7000CF93DF93AB01BC0181E10E94AC0D8111D7
:101D800022C02C98C0E0D0E005C0219719F42C9A0D
:101D900081E019C00E943A0F8E3FB9F7C0E0D0E051
:101DA0000E943A0FFE01E35BFE4F80832196C1152E
:101DB00082E0D807A9F70E943A0F0E943A0F0E94CA
:101DC0003A0F2C9A80E0DF91CF910895CF93DF9363
:101DD000AB01BC0188E10E94AC0D81113EC02C9882
:101DE0008EEF0E94340FC0E0D0E0FE01E35BFE4FB7
:101DF00080810E94340F2196C11522E0D207A9F7F5
:101E00008FEF0E94340F8FEF0E94340F0E943A0F21
:101E1000982F9F71953039F02C9A1FC0219629F484
:101E20002C9A81E01AC0C0E0D0E00E943A0F8823CB
:101E3000A9F32C9A8FEF0E94340F2C9808C0CE0182
:101E40000196219619F42C9A81E007C0EC010E94BA
:101E50003A0F8823A1F32C9A80E0DF91CF91089567
:101E600082E58CBD1DBC08958EBD0DB407FEFDCF6F
:101E70008EB508958FEF8EBD0DB407FEFDCF8EB5E4
:101E800008951092C50087E68093C400E1ECF0E06D
:101E90008081886180830895E0ECF0E08081882370
:101EA000ECF78091C6000895E0ECF0E0908195FF9A
:101EB000FDCF8093C6000895CF93DF93EC01FC0122
:101EC0008491882349F0FE01219684910E94540F49
:101ED000FE0184918111F7CFDF91CF910895CF93C7
:101EE000DF93EC018881882331F021960E94540F02
:101EF00089918111FBCFDF91CF910895DB018F9301
:101F00009F930E94BF0FBF91AF91A29F800D911D23
:101F1000A39F900DB29F900D11240895A1E21A2E57
:101F2000AA1BBB1BFD010DC0AA1FBB1FEE1FFF1F7D
:101F3000A217B307E407F50720F0A21BB30BE40BCD
:101F4000F50B661F771F881F991F1A9469F7609514
:101F50007095809590959B01AC01BD01CF010895CE
:101F6000A29FB001B39FC001A39F700D811D1124DA
:101F7000911DB29F700D811D1124911D08950E9425
:101F8000B00FA59F900DB49F900DA49F800D911D43
:081F900011240895F894FFCF1D
:101F980020202020202020202020202020204279BE
:101FA8007465730074657374732E74787400746543
:081FB80073742E7478740000AC
:00000001FF
